{
  "contractName": "Kittycontract",
  "abi": [
    {
      "anonymous": false,
      "inputs": [
        {
          "indexed": true,
          "internalType": "address",
          "name": "owner",
          "type": "address"
        },
        {
          "indexed": true,
          "internalType": "address",
          "name": "approved",
          "type": "address"
        },
        {
          "indexed": true,
          "internalType": "uint256",
          "name": "tokenId",
          "type": "uint256"
        }
      ],
      "name": "Approval",
      "type": "event"
    },
    {
      "anonymous": false,
      "inputs": [
        {
          "indexed": false,
          "internalType": "address",
          "name": "owner",
          "type": "address"
        },
        {
          "indexed": false,
          "internalType": "uint256",
          "name": "kittenId",
          "type": "uint256"
        },
        {
          "indexed": false,
          "internalType": "uint256",
          "name": "mumId",
          "type": "uint256"
        },
        {
          "indexed": false,
          "internalType": "uint256",
          "name": "dadId",
          "type": "uint256"
        },
        {
          "indexed": false,
          "internalType": "uint256",
          "name": "genes",
          "type": "uint256"
        }
      ],
      "name": "Birth",
      "type": "event"
    },
    {
      "anonymous": false,
      "inputs": [
        {
          "indexed": true,
          "internalType": "address",
          "name": "previousOwner",
          "type": "address"
        },
        {
          "indexed": true,
          "internalType": "address",
          "name": "newOwner",
          "type": "address"
        }
      ],
      "name": "OwnershipTransferred",
      "type": "event"
    },
    {
      "anonymous": false,
      "inputs": [
        {
          "indexed": true,
          "internalType": "address",
          "name": "from",
          "type": "address"
        },
        {
          "indexed": true,
          "internalType": "address",
          "name": "to",
          "type": "address"
        },
        {
          "indexed": true,
          "internalType": "uint256",
          "name": "tokenId",
          "type": "uint256"
        }
      ],
      "name": "Transfer",
      "type": "event"
    },
    {
      "inputs": [],
      "name": "CREATION_LIMIT_GEN0",
      "outputs": [
        {
          "internalType": "uint256",
          "name": "",
          "type": "uint256"
        }
      ],
      "stateMutability": "view",
      "type": "function"
    },
    {
      "inputs": [],
      "name": "gen0Counter",
      "outputs": [
        {
          "internalType": "uint256",
          "name": "",
          "type": "uint256"
        }
      ],
      "stateMutability": "view",
      "type": "function"
    },
    {
      "inputs": [
        {
          "internalType": "uint256",
          "name": "",
          "type": "uint256"
        }
      ],
      "name": "kittyindexToOwner",
      "outputs": [
        {
          "internalType": "address",
          "name": "",
          "type": "address"
        }
      ],
      "stateMutability": "view",
      "type": "function"
    },
    {
      "inputs": [],
      "name": "owner",
      "outputs": [
        {
          "internalType": "address",
          "name": "",
          "type": "address"
        }
      ],
      "stateMutability": "view",
      "type": "function"
    },
    {
      "inputs": [],
      "name": "renounceOwnership",
      "outputs": [],
      "stateMutability": "nonpayable",
      "type": "function"
    },
    {
      "inputs": [
        {
          "internalType": "address",
          "name": "newOwner",
          "type": "address"
        }
      ],
      "name": "transferOwnership",
      "outputs": [],
      "stateMutability": "nonpayable",
      "type": "function"
    },
    {
      "inputs": [
        {
          "internalType": "uint256",
          "name": "_genes",
          "type": "uint256"
        }
      ],
      "name": "createKittyGen0",
      "outputs": [
        {
          "internalType": "uint256",
          "name": "",
          "type": "uint256"
        }
      ],
      "stateMutability": "nonpayable",
      "type": "function"
    },
    {
      "inputs": [
        {
          "internalType": "uint256",
          "name": "_id",
          "type": "uint256"
        }
      ],
      "name": "getKitty",
      "outputs": [
        {
          "internalType": "uint256",
          "name": "genes",
          "type": "uint256"
        },
        {
          "internalType": "uint256",
          "name": "birthTime",
          "type": "uint256"
        },
        {
          "internalType": "uint256",
          "name": "mumId",
          "type": "uint256"
        },
        {
          "internalType": "uint256",
          "name": "dadId",
          "type": "uint256"
        },
        {
          "internalType": "uint256",
          "name": "generation",
          "type": "uint256"
        }
      ],
      "stateMutability": "view",
      "type": "function"
    },
    {
      "inputs": [
        {
          "internalType": "address",
          "name": "owner",
          "type": "address"
        }
      ],
      "name": "balanceOf",
      "outputs": [
        {
          "internalType": "uint256",
          "name": "balance",
          "type": "uint256"
        }
      ],
      "stateMutability": "view",
      "type": "function"
    },
    {
      "inputs": [],
      "name": "totalSupply",
      "outputs": [
        {
          "internalType": "uint256",
          "name": "total",
          "type": "uint256"
        }
      ],
      "stateMutability": "view",
      "type": "function"
    },
    {
      "inputs": [],
      "name": "name",
      "outputs": [
        {
          "internalType": "string",
          "name": "",
          "type": "string"
        }
      ],
      "stateMutability": "pure",
      "type": "function"
    },
    {
      "inputs": [],
      "name": "symbol",
      "outputs": [
        {
          "internalType": "string",
          "name": "",
          "type": "string"
        }
      ],
      "stateMutability": "pure",
      "type": "function"
    },
    {
      "inputs": [
        {
          "internalType": "uint256",
          "name": "tokenId",
          "type": "uint256"
        }
      ],
      "name": "ownerOf",
      "outputs": [
        {
          "internalType": "address",
          "name": "",
          "type": "address"
        }
      ],
      "stateMutability": "view",
      "type": "function"
    },
    {
      "inputs": [
        {
          "internalType": "address",
          "name": "_to",
          "type": "address"
        },
        {
          "internalType": "uint256",
          "name": "_tokenId",
          "type": "uint256"
        }
      ],
      "name": "transfer",
      "outputs": [],
      "stateMutability": "nonpayable",
      "type": "function"
    }
  ],
  "bytecode": "0x608060405234801561001057600080fd5b5061002d61002261003260201b60201c565b61003a60201b60201c565b6100fe565b600033905090565b60008060009054906101000a900473ffffffffffffffffffffffffffffffffffffffff169050816000806101000a81548173ffffffffffffffffffffffffffffffffffffffff021916908373ffffffffffffffffffffffffffffffffffffffff1602179055508173ffffffffffffffffffffffffffffffffffffffff168173ffffffffffffffffffffffffffffffffffffffff167f8be0079c531659141344cd1fd0a4f28419497f9722a3daafe3b4186f6b6457e060405160405180910390a35050565b61135e8061010d6000396000f3fe608060405234801561001057600080fd5b50600436106100ea5760003560e01c806395d89b411161008c578063d5a776ca11610066578063d5a776ca1461023b578063e98b7f4d1461026b578063ef5e94aa1461029f578063f2fde38b146102bd576100ea565b806395d89b41146101e3578063a9059cbb14610201578063b48343301461021d576100ea565b80636352211e116100c85780636352211e1461015b57806370a082311461018b578063715018a6146101bb5780638da5cb5b146101c5576100ea565b806306fdde03146100ef57806318160ddd1461010d5780633d1694051461012b575b600080fd5b6100f76102d9565b6040516101049190610f0b565b60405180910390f35b610115610316565b6040516101229190610fcd565b60405180910390f35b61014560048036038101906101409190610d6a565b610323565b6040516101529190610e9d565b60405180910390f35b61017560048036038101906101709190610d6a565b610356565b6040516101829190610e9d565b60405180910390f35b6101a560048036038101906101a09190610cfd565b610393565b6040516101b29190610fcd565b60405180910390f35b6101c36103dc565b005b6101cd610464565b6040516101da9190610e9d565b60405180910390f35b6101eb61048d565b6040516101f89190610f0b565b60405180910390f35b61021b60048036038101906102169190610d2a565b6104ca565b005b61022561066c565b6040516102329190610fcd565b60405180910390f35b61025560048036038101906102509190610d6a565b610671565b6040516102629190610fcd565b60405180910390f35b61028560048036038101906102809190610d6a565b61072c565b604051610296959493929190610fe8565b60405180910390f35b6102a76107e2565b6040516102b49190610fcd565b60405180910390f35b6102d760048036038101906102d29190610cfd565b6107e8565b005b60606040518060400160405280600d81526020017f43727970746f4b69747469657300000000000000000000000000000000000000815250905090565b6000600180549050905090565b60036020528060005260406000206000915054906101000a900473ffffffffffffffffffffffffffffffffffffffff1681565b60006003600083815260200190815260200160002060009054906101000a900473ffffffffffffffffffffffffffffffffffffffff169050919050565b6000600260008373ffffffffffffffffffffffffffffffffffffffff1673ffffffffffffffffffffffffffffffffffffffff168152602001908152602001600020549050919050565b6103e46108e0565b73ffffffffffffffffffffffffffffffffffffffff16610402610464565b73ffffffffffffffffffffffffffffffffffffffff1614610458576040517f08c379a000000000000000000000000000000000000000000000000000000000815260040161044f90610f8d565b60405180910390fd5b61046260006108e8565b565b60008060009054906101000a900473ffffffffffffffffffffffffffffffffffffffff16905090565b60606040518060400160405280600281526020017f434b000000000000000000000000000000000000000000000000000000000000815250905090565b600073ffffffffffffffffffffffffffffffffffffffff168273ffffffffffffffffffffffffffffffffffffffff16141561053a576040517f08c379a000000000000000000000000000000000000000000000000000000000815260040161053190610f2d565b60405180910390fd5b6000600260003373ffffffffffffffffffffffffffffffffffffffff1673ffffffffffffffffffffffffffffffffffffffff16815260200190815260200160002054116105bc576040517f08c379a00000000000000000000000000000000000000000000000000000000081526004016105b390610fad565b60405180910390fd5b3373ffffffffffffffffffffffffffffffffffffffff166003600083815260200190815260200160002060009054906101000a900473ffffffffffffffffffffffffffffffffffffffff1673ffffffffffffffffffffffffffffffffffffffff161461065d576040517f08c379a000000000000000000000000000000000000000000000000000000000815260040161065490610f6d565b60405180910390fd5b6106683383836109ac565b5050565b600a81565b600061067b6108e0565b73ffffffffffffffffffffffffffffffffffffffff16610699610464565b73ffffffffffffffffffffffffffffffffffffffff16146106ef576040517f08c379a00000000000000000000000000000000000000000000000000000000081526004016106e690610f8d565b60405180910390fd5b600a600454106106fe57600080fd5b6004600081548092919061071190611124565b919050555061072560008060008533610b3d565b9050919050565b600080600080600080600187815481106107495761074861119c565b5b906000526020600020906002020190508060010160009054906101000a900467ffffffffffffffff1667ffffffffffffffff1694508060010160089054906101000a900463ffffffff1663ffffffff16935080600101600c9054906101000a900463ffffffff1663ffffffff1692508060010160109054906101000a900461ffff1661ffff169150806000015495505091939590929450565b60045481565b6107f06108e0565b73ffffffffffffffffffffffffffffffffffffffff1661080e610464565b73ffffffffffffffffffffffffffffffffffffffff1614610864576040517f08c379a000000000000000000000000000000000000000000000000000000000815260040161085b90610f8d565b60405180910390fd5b600073ffffffffffffffffffffffffffffffffffffffff168173ffffffffffffffffffffffffffffffffffffffff1614156108d4576040517f08c379a00000000000000000000000000000000000000000000000000000000081526004016108cb90610f4d565b60405180910390fd5b6108dd816108e8565b50565b600033905090565b60008060009054906101000a900473ffffffffffffffffffffffffffffffffffffffff169050816000806101000a81548173ffffffffffffffffffffffffffffffffffffffff021916908373ffffffffffffffffffffffffffffffffffffffff1602179055508173ffffffffffffffffffffffffffffffffffffffff168173ffffffffffffffffffffffffffffffffffffffff167f8be0079c531659141344cd1fd0a4f28419497f9722a3daafe3b4186f6b6457e060405160405180910390a35050565b600260008373ffffffffffffffffffffffffffffffffffffffff1673ffffffffffffffffffffffffffffffffffffffff16815260200190815260200160002060008154809291906109fc90611124565b9190505550816003600083815260200190815260200160002060006101000a81548173ffffffffffffffffffffffffffffffffffffffff021916908373ffffffffffffffffffffffffffffffffffffffff160217905550600073ffffffffffffffffffffffffffffffffffffffff168373ffffffffffffffffffffffffffffffffffffffff1614610add57600260008473ffffffffffffffffffffffffffffffffffffffff1673ffffffffffffffffffffffffffffffffffffffff1681526020019081526020016000206000815480929190610ad7906110fa565b91905055505b808273ffffffffffffffffffffffffffffffffffffffff168473ffffffffffffffffffffffffffffffffffffffff167fddf252ad1be2c89b69c2b068fc378daa952ba7f163c4a11628f55a4df523b3ef60405160405180910390a4505050565b6000806040518060a001604052808867ffffffffffffffff1681526020014267ffffffffffffffff1681526020018763ffffffff1681526020018663ffffffff1681526020018561ffff16815250905060018190806001815401808255809150506001900390600052602060002090600202016000909190919091506000820151816000015560208201518160010160006101000a81548167ffffffffffffffff021916908367ffffffffffffffff16021790555060408201518160010160086101000a81548163ffffffff021916908363ffffffff160217905550606082015181600101600c6101000a81548163ffffffff021916908363ffffffff16021790555060808201518160010160106101000a81548161ffff021916908361ffff1602179055505050600060018080549050610c789190611057565b90507f0a5311bd2a6608f08a180df2ee7c5946819a649b204b554bb8e39825b2c50ad5848289898c604051610cb1959493929190610eb8565b60405180910390a1610cc5600085836109ac565b809250505095945050505050565b600081359050610ce2816112fa565b92915050565b600081359050610cf781611311565b92915050565b600060208284031215610d1357610d126111cb565b5b6000610d2184828501610cd3565b91505092915050565b60008060408385031215610d4157610d406111cb565b5b6000610d4f85828601610cd3565b9250506020610d6085828601610ce8565b9150509250929050565b600060208284031215610d8057610d7f6111cb565b5b6000610d8e84828501610ce8565b91505092915050565b610da08161108b565b82525050565b6000610db18261103b565b610dbb8185611046565b9350610dcb8185602086016110c7565b610dd4816111d0565b840191505092915050565b6000610dec602283611046565b9150610df7826111e1565b604082019050919050565b6000610e0f602683611046565b9150610e1a82611230565b604082019050919050565b6000610e32601683611046565b9150610e3d8261127f565b602082019050919050565b6000610e55602083611046565b9150610e60826112a8565b602082019050919050565b6000610e78601183611046565b9150610e83826112d1565b602082019050919050565b610e97816110bd565b82525050565b6000602082019050610eb26000830184610d97565b92915050565b600060a082019050610ecd6000830188610d97565b610eda6020830187610e8e565b610ee76040830186610e8e565b610ef46060830185610e8e565b610f016080830184610e8e565b9695505050505050565b60006020820190508181036000830152610f258184610da6565b905092915050565b60006020820190508181036000830152610f4681610ddf565b9050919050565b60006020820190508181036000830152610f6681610e02565b9050919050565b60006020820190508181036000830152610f8681610e25565b9050919050565b60006020820190508181036000830152610fa681610e48565b9050919050565b60006020820190508181036000830152610fc681610e6b565b9050919050565b6000602082019050610fe26000830184610e8e565b92915050565b600060a082019050610ffd6000830188610e8e565b61100a6020830187610e8e565b6110176040830186610e8e565b6110246060830185610e8e565b6110316080830184610e8e565b9695505050505050565b600081519050919050565b600082825260208201905092915050565b6000611062826110bd565b915061106d836110bd565b9250828210156110805761107f61116d565b5b828203905092915050565b60006110968261109d565b9050919050565b600073ffffffffffffffffffffffffffffffffffffffff82169050919050565b6000819050919050565b60005b838110156110e55780820151818401526020810190506110ca565b838111156110f4576000848401525b50505050565b6000611105826110bd565b915060008214156111195761111861116d565b5b600182039050919050565b600061112f826110bd565b91507fffffffffffffffffffffffffffffffffffffffffffffffffffffffffffffffff8214156111625761116161116d565b5b600182019050919050565b7f4e487b7100000000000000000000000000000000000000000000000000000000600052601160045260246000fd5b7f4e487b7100000000000000000000000000000000000000000000000000000000600052603260045260246000fd5b600080fd5b6000601f19601f8301169050919050565b7f43616e6e6f742073656e6420746f6b656e7320746f207468697320616464726560008201527f7373000000000000000000000000000000000000000000000000000000000000602082015250565b7f4f776e61626c653a206e6577206f776e657220697320746865207a65726f206160008201527f6464726573730000000000000000000000000000000000000000000000000000602082015250565b7f596f75206d757374206f776e2074686520746f6b656e00000000000000000000600082015250565b7f4f776e61626c653a2063616c6c6572206973206e6f7420746865206f776e6572600082015250565b7f4e6f7420656e6f75676820746f6b656e73000000000000000000000000000000600082015250565b6113038161108b565b811461130e57600080fd5b50565b61131a816110bd565b811461132557600080fd5b5056fea26469706673582212201f77db67fbd2bfd630fb7072822dac7423621cfaa275ac9de16b6f2792fdb71264736f6c63430008060033",
  "immutableReferences": {},
  "source": "/// SPDX-License-Identifier: MIT\r\npragma solidity >=0.4.22 <0.9.0;\r\n\r\nimport \"./IERC721.sol\";\r\nimport \"@openzeppelin/contracts/access/Ownable.sol\";\r\n\r\ncontract Kittycontract is IERC721, Ownable{\r\n    \r\n    uint256 public constant CREATION_LIMIT_GEN0 = 10;\r\n    string constant _tokenName = \"CryptoKitties\";\r\n    string constant _tokenSymbol = \"CK\";\r\n\r\n    event Birth(\r\n           address owner,\r\n        uint256 kittenId,\r\n        uint256 mumId,\r\n        uint256 dadId,\r\n        uint256 genes);\r\n\r\n    struct Kitty{\r\n        uint256 genes;\r\n         uint64 birthTime;\r\n        uint32 mumId;\r\n        uint32 dadId;\r\n        uint16 generation;\r\n    }\r\n\r\n    Kitty[] kitties;\r\n\r\n    mapping(address => uint256) ownershipTokenCount;\r\n    mapping(uint256 => address) public kittyindexToOwner;\r\n\r\n    uint256 public gen0Counter;\r\n\r\n    function createKittyGen0(uint256 _genes) public onlyOwner returns (uint256){\r\n        require(gen0Counter < CREATION_LIMIT_GEN0);\r\n        gen0Counter++;\r\n        return _createKitty(0, 0, 0, _genes, msg.sender);\r\n    }\r\n\r\n    function _createKitty(\r\n        uint256 _genes,\r\n        uint256 _mumId,\r\n        uint256 _dadId,\r\n        uint256 _generation,\r\n        address _owner\r\n    ) private returns (uint256){\r\n        Kitty memory _kitty = Kitty({\r\n            genes: uint64(_genes),\r\n            birthTime: uint64(block.timestamp),\r\n            mumId: uint32(_mumId),\r\n            dadId: uint32(_dadId),\r\n            generation:  uint16(_generation)\r\n        });\r\n    \r\n        kitties.push(_kitty);\r\n       uint256 newKittenId = kitties.length - 1;\r\n\r\n       emit Birth(_owner, newKittenId, _mumId, _dadId, _genes);\r\n\r\n       _transfer(address(0), _owner, newKittenId);\r\n\r\n       return newKittenId;\r\n    }\r\n\r\n    // function getKitty(uint256 kittyId) public view returns (uint256, uint64, uint32, uint32, uint16){\r\n    //     return (\r\n    //         kitties[kittyId].genes,\r\n    //         kitties[kittyId].birthTime,\r\n    //         kitties[kittyId].mumId, \r\n    //         kitties[kittyId].dadId,\r\n    //         kitties[kittyId].generation\r\n    //         );\r\n    // }\r\n    \r\n    function getKitty(uint256 _id) external view returns(\r\n        uint256 genes, \r\n        uint256 birthTime, \r\n        uint256 mumId, \r\n        uint256 dadId, \r\n        uint256 generation\r\n        ){\r\n\r\n        Kitty storage kitty = kitties[_id];\r\n\r\n        birthTime = uint256(kitty.birthTime);\r\n        mumId = uint256(kitty.mumId);\r\n        dadId = uint256(kitty.dadId);\r\n        generation = uint256(kitty.generation);\r\n        genes = kitty.genes;\r\n    }\r\n        \r\n\r\n    function balanceOf(address owner) external override view returns (uint256 balance){\r\n        return ownershipTokenCount[owner];\r\n    }\r\n\r\n    function totalSupply() public override view  returns (uint256 total){\r\n        return kitties.length;\r\n    }\r\n\r\n     function name() external override pure returns (string memory){return _tokenName;}\r\n\r\n    function symbol() external override pure returns (string memory){return _tokenSymbol;}\r\n\r\n    function ownerOf(uint256 tokenId) external view override returns (address){\r\n        return kittyindexToOwner[tokenId];\r\n    }\r\n\r\n    function transfer(address _to, uint256 _tokenId) external override{\r\n        require(_to != address(0), \"Cannot send tokens to this address\");\r\n        require(ownershipTokenCount[msg.sender]>0, \"Not enough tokens\");\r\n        require(kittyindexToOwner[_tokenId]==msg.sender, \"You must own the token\");\r\n    \r\n        _transfer(msg.sender, _to, _tokenId);\r\n    }\r\n\r\n    function _transfer(address _from, address _to, uint256 _tokenId) internal {\r\n\r\n        ownershipTokenCount[_to]++;\r\n        kittyindexToOwner[_tokenId] = _to;\r\n        \r\n        if(_from !=address(0)){\r\n        ownershipTokenCount[_from]--;\r\n\r\n        }\r\n        emit Transfer(_from, _to, _tokenId);\r\n    }\r\n}",
  "sourcePath": "C:/Users/rbsou/Documents/SOLIDITY/academy-kitties-template/contracts/kittycontract.sol",
  "compiler": {
    "name": "solc",
    "version": "0.8.6+commit.11564f7e.Emscripten.clang"
  },
  "schemaVersion": "3.4.1",
  "updatedAt": "2021-07-07T15:00:36.957Z",
  "devdoc": {
    "kind": "dev",
    "methods": {
      "balanceOf(address)": {
        "details": "Returns the number of tokens in ``owner``'s account."
      },
      "owner()": {
        "details": "Returns the address of the current owner."
      },
      "ownerOf(uint256)": {
        "details": "Returns the owner of the `tokenId` token. Requirements: - `tokenId` must exist."
      },
      "renounceOwnership()": {
        "details": "Leaves the contract without owner. It will not be possible to call `onlyOwner` functions anymore. Can only be called by the current owner. NOTE: Renouncing ownership will leave the contract without an owner, thereby removing any functionality that is only available to the owner."
      },
      "transferOwnership(address)": {
        "details": "Transfers ownership of the contract to a new account (`newOwner`). Can only be called by the current owner."
      }
    },
    "version": 1
  },
  "userdoc": {
    "kind": "user",
    "methods": {},
    "version": 1
  }
}